S01D000054726166666963206C6967687420636F6E74726F6C2E73726563EF
S11300000C942A000C942E030C943C000C943C0099
S11300100C943C000C943C000C943C000C943C006C
S11300200C943C000C943C000C943C000C943C005C
S11300300C943C000C943C000C943C000C943C004C
S11300400C943C000C943C000C943C000C943C003C
S11300500C943C0011241FBECFE5D8E0DEBFCDBF19
S113006020E0A0E6B0E001C01D92A836B207E1F797
S11300700E94D3010C94A1030C94000062E082E07E
S11300800E943C0181E08093600060E00E943C019A
S113009085E090E00E945A0360E081E00E946D01D7
S11300A082E08093600081E00E949E0161E081E033
S11300B00E946D0183E08093600062E081E00E9411
S11300C03C0185E090E00E945A0362E081E00E94D6
S11300D06D01089580916000823009F448C0833036
S11300E009F48CC0813009F095C060E00E946D0174
S11300F062E082E00E946D0182E00E949E0161E064
S113010082E00E946D0161E081E00E946D0162E085
S113011081E00E943C0181E090E00E945A0360E08B
S113012082E00E943C0185E090E00E945A0362E074
S113013081E00E946D0182E00E949E0161E082E004
S11301400E946D0161E081E00E946D0160E082E047
S11301500E946D0162E082E00E943C0160E081E067
S11301600E943C0181E090E00E945A03089562E0FD
S113017082E00E946D0161E081E00E943C0161E047
S113018082E00E943C0182E00E949E0161E081E0E5
S11301900E946D0161E082E00E946D0162E081E0F5
S11301A00E943C0160E082E00E943C0185E090E016
S11301B00E945A0362E081E00E946D0182E00E9485
S11301C09E0161E081E00E946D0161E082E00E9495
S11301D06D0160E082E00E946D0162E082E00E94B5
S11301E03C0160E081E00E943C0185E090E00E94D7
S11301F05A0360E081E00E946D01089562E081E0AD
S11302000E943C0160E082E00E943C0185E090E0B5
S11302100E945A030895823089F018F4813031F035
S113022025C0833099F08430C9F020C041E081E0DA
S11302300E94F60181E0809367001BC041E082E0E8
S11302400E94F60181E08093670013C041E083E0DF
S11302500E94F60181E0809367000BC041E084E0D6
S11302600E94F60181E08093670003C082E08093DE
S11302706700809167000895823089F018F4813016
S113028031F025C0833099F08430C9F020C041E0BA
S113029081E00E946C0281E0809367001BC041E012
S11302A082E00E946C0281E08093670013C041E009
S11302B083E00E946C0281E0809367000BC041E000
S11302C084E00E946C0281E08093670003C082E0B6
S11302D080936700809167000895823089F018F454
S11302E0813031F025C0833099F08430C9F020C0CA
S11302F040E081E00E946C0281E0809367001BC0B3
S113030040E082E00E946C0281E08093670013C0A9
S113031040E083E00E946C0281E0809367000BC0A0
S113032040E084E00E946C0281E08093670003C097
S113033082E080936700809167000895CF93DF93F4
S1130340813039F1823091F029C061E081E00E946E
S1130350E20261E082E00E94E20281E090E00E9419
S11303605A03219681E08093670002C0C0E0D0E088
S1130370C530D10551F712C061E081E00E94E2026C
S113038081E090E00E945A03219681E08093670007
S113039002C0C0E0D0E0C530D10571F7809167009C
S11303A0DF91CF91089560E081E00E940B0161E04C
S11303B081E00E940B0162E081E00E940B0160E099
S11303C082E00E940B0161E082E00E940B0162E086
S11303D082E00E940B010E9457030E9419038AE6DF
S11303E090E00E9426030E943E00FDCF4130B9F503
S11303F08230A1F018F4813031F008958330C9F0CF
S1130400843011F108952AB381E090E002C0880F8E
S1130410991F6A95E2F7822B8ABB089527B381E07E
S113042090E002C0880F991F6A95E2F7822B87BB80
S1130430089524B381E090E002C0880F991F6A9563
S1130440E2F7822B84BB089521B381E090E002C0DF
S1130450880F991F6A95E2F7822B81BB0895411199
S11304603AC08230A9F018F4813031F00895833015
S1130470D9F0843029F108952AB381E090E002C0D4
S1130480880F991F6A95E2F7809582238ABB0895A5
S113049027B381E090E002C0880F991F6A95E2F7C4
S11304A08095822387BB089524B381E090E002C045
S11304B0880F991F6A95E2F78095822384BB08957B
S11304C021B381E090E002C0880F991F6A95E2F79A
S11304D08095822381BB08954130B9F58230A1F023
S11304E018F4813031F008958330C9F0843011F16B
S11304F008952BB381E090E002C0880F991F6A959C
S1130500E2F7822B8BBB089528B381E090E002C010
S1130510880F991F6A95E2F7822B88BB089525B34B
S113052081E090E002C0880F991F6A95E2F7822B60
S113053085BB089522B381E090E002C0880F991F23
S11305406A95E2F7822B82BB089541113AC082304A
S1130550A9F018F4813031F008958330D9F0843053
S113056029F108952BB381E090E002C0880F991F10
S11305706A95E2F7809582238BBB089528B381E0C6
S113058090E002C0880F991F6A95E2F78095822354
S113059088BB089525B381E090E002C0880F991FBD
S11305A06A95E2F78095822385BB089522B381E0A2
S11305B090E002C0880F991F6A95E2F78095822324
S11305C082BB08958230A1F018F4813031F008958F
S11305D08330C9F0843011F108952BB381E090E0A9
S11305E002C0880F991F6A95E2F782278BBB089592
S11305F028B381E090E002C0880F991F6A95E2F762
S1130600822788BB089525B381E090E002C0880F5B
S1130610991F6A95E2F7822785BB089522B381E08A
S113062090E002C0880F991F6A95E2F7822782BB87
S113063008958FB780688FBF85B7826085BF85B7FF
S1130640816085BF8BB780648BBF0895009721F0CC
S1130650909362008093610080E008951F920F924E
S11306600FB60F9211242F933F934F935F936F9381
S11306707F938F939F93AF93BF93EF93FF93E091F7
S11306806100F0916200309709F00995FF91EF91B4
S1130690BF91AF919F918F917F916F915F914F9196
S11306A03F912F910F900FBE0F901F90189513BE7E
S11306B012BE08958530910591F481E391E0909301
S11306C06400809363008FEF82BF83B7816083BF30
S11306D083B7826083BF83B78B7F83BF22C00197B8
S11306E001F582E49FE0909364008093630012BE5E
S11306F083B7816083BF83B78D7F83BF83B78B7FCD
S113070083BF0FC008B600FEFDCF88B7816088BFE5
S113071080916500909166000196909366008093A5
S1130720650020916500309166008091630090918E
S113073064002817390730F31092660010926500A0
S10907400895F894FFCFB8
S9030000FC
